:100000000C942A000C9467190C949A190C94CD192D
:100010000C9447000C9447000C9447000C94441730
:100020000C9447000C9447000C9425160C94581619
:100030000C9447000C9447000C9447000C94470024
:100040000C9447000C9447000C9447000C94470014
:100050000C94470011241FBECFE5D8E0DEBFCDBF12
:1000600011E0A0E6B0E0E4E7F9E502C005900D92EA
:10007000A039B107D9F711E0A0E9B1E001C01D92A4
:10008000AA3AB107E1F70E94C02B0C94B82C0C944B
:100090000000EF92FF920F93DF93CF93CDB7DEB7BF
:1000A00060970FB6F894DEBF0FBECDBFA82F002318
:1000B00009F461C07E010894E11CF11C88E0F7019D
:1000C00011928A95E9F729833A834B835C836D8388
:1000D0007E83AF83988780E2801BE82FFF27E7FDB0
:1000E000F09549815A816B817C81181684F01986BC
:1000F0001A861B861C86882799278E1B9F0B04C097
:10010000440F551F661F771F8A95D2F728C0202FEE
:10011000332727FD3095DB01CA01022E04C0880F6A
:10012000991FAA1FBB1F0A94D2F789879A87AB87AA
:10013000BC8704C07695679557954795EA95D2F7A1
:100140008D819E81AF81B88504C0880F991FAA1F39
:10015000BB1F2A95D2F7482B592B6A2B7B2B4D8737
:100160005E876F87788B29853A854B855C856D85A1
:100170007E85AF8598898A2F60960FB6F894DEBF8A
:100180000FBECDBFCF91DF910F91FF90EF900895FB
:10019000EF92FF920F931F937B018C0120E030E0E0
:1001A00040E05FE40E94591188238CF0C801B70138
:1001B00020E030E040E05FE40E94250F0E94B9118A
:1001C0009B01AC01205030404040504806C0C8015F
:1001D000B7010E94B9119B01AC01B901CA011F917D
:1001E0000F91FF90EF900895AEE5B0E0EAEFF0E0F8
:1001F0000C94812CA8E04E010894811C911CF40100
:100200006A2E11926A94E9F729833A834B835C83BF
:100210006D837E838F839887CE010996FC011192AE
:10022000AA95E9F7A986BA86CB86DC86ED86FE8696
:100230000F87188B29843A844B845C84ED84FE8478
:100240000F85188969807A808B809C806DA67EA638
:100250008FA698AA6D807E808F809884E114F10427
:100260000105110509F0B3C36214730484049504F5
:1002700008F03DC100E0201600E0300601E0400635
:1002800000E0500688F41FEF2116310441045104A8
:1002900039F030F048E0E42EF12C012D112D18C07A
:1002A000EE24FF24870114C020E0221620E032064D
:1002B00020E0420621E0520630F038E1E32EF12C36
:1002C000012D112D05C020E1E22EF12C012D112D63
:1002D000D201C1010E2C04C0B695A79597958795BC
:1002E0000A94D2F788599F4FDC012C9180E290E06C
:1002F000A0E0B0E08E199F09A00BB10B7C018D012D
:10030000E21AF10801091109E114F10401051105CE
:10031000A1F10E2C04C0220C331C441C551C0A9461
:10032000D2F7A40193010E2C04C0220F331F441FE7
:10033000551F0A94D2F780E290E08E199F096DA4B0
:100340007EA48FA498A804C0969487947794679409
:100350008A95D2F7622A732A842A952AADA4BEA46C
:10036000CFA4D8A804C0AA0CBB1CCC1CDD1CEA94EA
:10037000D2F7ADA6BEA6CFA6D8AA6201EE24FF246E
:10038000CDAADEAAEFAAF8AE9201810120703070EA
:1003900009AF1AAF2BAF3CAFC401B301A70196015F
:1003A0000E945F2C7B018C01C401B3012DA93EA9E1
:1003B0004FA958AD0E945F2CC901DA013C014D01E3
:1003C000C401B30129AD3AAD4BAD5CAD0E94402CE8
:1003D0009B01AC018701FF24EE24ADA4BEA4CFA4F1
:1003E000D8A8C601AA27BB2757016801A82AB92A9D
:1003F000CA2ADB2AA216B306C406D506E0F408947E
:100400006108710881089108A20CB31CC41CD51C9A
:10041000A214B304C404D50470F0A216B306C40633
:10042000D50648F408946108710881089108A20C67
:10043000B31CC41CD51CA21AB30AC40AD50AC6012F
:10044000B5012DA93EA94FA958AD0E945F2C7B0193
:100450008C01C601B5012DA93EA94FA958AD0E9436
:100460005F2CC901DA015C016D01C601B50129AD3E
:100470003AAD4BAD5CAD0E94402C9B01AC018701B5
:10048000FF24EE248DA59EA5AFA5B8A9A070B070DD
:10049000E82AF92A0A2B1B2BE216F3060407150794
:1004A000C0F40894A108B108C108D108E20CF31CFB
:1004B000041D151DE214F3040405150550F0E216A1
:1004C000F3060407150728F40894A108B108C10829
:1004D000D108D3019927882786017501E82AF92ACE
:1004E0000A2B1B2BE9AAFAAA0BAB1CABCFC4211415
:1004F00031044104510471F461E070E080E090E067
:1005000020E030E040E050E00E945F2CC901DA01B9
:100510001C012D0100E0201600E0300601E040063D
:1005200000E0500688F41FEF211631044104510405
:1005300031F028F048E050E060E070E017C040E0A3
:1005400050E060E070E012C020E0221620E03206A9
:1005500020E0420621E0520628F048E150E060E049
:1005600070E004C040E150E060E070E0D201C10101
:10057000042E04C0B695A795979587950A94D2F74F
:1005800088599F4FDC012C91E0E2EE2EF12C012DD9
:10059000112DD801C701841B950BA60BB70B821B2D
:1005A0009109A109B1090097A105B10561F46401A0
:1005B0005301A218B308C408D50831E0632E712C8A
:1005C000812C912C1EC16F968FAF6F97082E04C09F
:1005D000220C331C441C551C0A94D2F7EE2DE81B48
:1005E000640153010E2E04C0D694C794B794A79407
:1005F0000A94D2F7A40193016F960FAC6F9704C0D1
:10060000220F331F441F551F0A94D2F76DA47EA4F6
:100610008FA498A80E2E04C096948794779467941C
:100620000A94D2F784017301E22AF32A042B152BD2
:10063000E9A6FAA60BA71CA73201882499249201E7
:1006400081012070307021960CAF1DAF2EAF3FAFEF
:100650002197C601B501A40193010E945F2C7B0183
:100660008C01C601B501A40193010E945F2CC90150
:10067000DA0125968CAF9DAFAEAFBFAF2597BC0119
:10068000CD0121962CAD3DAD4EAD5FAD21970E94C1
:10069000402C9B01AC018701FF24EE24A9A4BAA43D
:1006A000CBA4DCA4C601AA27BB275C016D01AE2840
:1006B000BF28C02AD12AA216B306C406D50660F503
:1006C00025966CAD7DAD8EAD9FAD25976150704088
:1006D0008040904025966CAF7DAF8EAF9FAF259741
:1006E000A20CB31CC41CD51CA214B304C404D504AE
:1006F00098F0A216B306C406D50670F46150704097
:100700008040904025966CAF7DAF8EAF9FAF259710
:10071000A20CB31CC41CD51CA21AB30AC40AD50A65
:10072000C601B501A40193010E945F2C7B018C01DD
:10073000C601B501A40193010E945F2CC901DA0131
:100740003C014D01C401B30121962CAD3DAD4EAD30
:100750005FAD21970E94402C9B01AC018701FF24D3
:10076000EE2489A59AA5ABA5BCA5A070B0705701D1
:100770006801A82AB92ACA2ADB2AA216B306C40627
:10078000D506E0F408946108710881089108A20C6C
:10079000B31CC41CD51CA214B304C404D50470F04B
:1007A000A216B306C406D50648F408946108710879
:1007B00081089108A20CB31CC41CD51C8DA59EA554
:1007C000AFA5B8A96F960FAC6F9704C0880F991F9B
:1007D000AA1FBB1F0A94D2F78DA79EA7AFA7B8ABDD
:1007E000A21AB30AC40AD50A2596ECACFDAC0EAD2C
:1007F0001FAD2597D70199278827682A792A8A2A41
:100800009B2A82012227332729960CAF1DAF2EAFDA
:100810003FAF2997A2019101407050702D962CAFE7
:100820003DAF4EAF5FAF2D97C601B50129962CADF8
:100830003DAD4EAD5FAD29970E945F2C7B018C01D1
:10084000C601B50129962CAD3DAD4EAD5FAD2997E2
:100850000E945F2CC901DA0161968CAF9DAFAEAFEB
:10086000BFAF6197BC01CD012D962CAD3DAD4EAD16
:100870005FAD2D970E94402C9B01AC018701FF24A6
:10088000EE24ADA4BEA4CFA4D8A8C601AA27BB2736
:1008900057016801A82AB92ACA2ADB2AA216B30678
:1008A000C406D50660F561966CAD7DAD8EAD9FAD8D
:1008B0006197615070408040904061966CAF7DAF11
:1008C0008EAF9FAF6197A20CB31CC41CD51CA214A1
:1008D000B304C404D50498F0A216B306C406D50622
:1008E00070F4615070408040904061966CAF7DAF75
:1008F0008EAF9FAF6197A20CB31CC41CD51CA21A6B
:10090000B30AC40AD50AC601B50129962CAD3DAD7E
:100910004EAD5FAD29970E945F2C7B018C01C60113
:10092000B50129962CAD3DAD4EAD5FAD29970E9426
:100930005F2CC901DA015C016D01C601B5012D967C
:100940002CAD3DAD4EAD5FAD2D970E94402C9B016F
:10095000AC018701FF24EE248DA59EA5AFA5B8A903
:10096000A070B070E82AF92A0A2B1B2BE216F306B6
:1009700004071507C0F40894A108B108C108D108FC
:10098000E20CF31C041D151DE214F3040405150507
:1009900050F0E216F3060407150728F40894A1089E
:1009A000B108C108D1086196ECACFDAC0EAD1FAD2D
:1009B0006197D7019927882796018501082B192B64
:1009C0002A2B3B2B09AB1AAB2BAB3CAB62C26E1490
:1009D0007F048006910608F451C220E0E21620E070
:1009E000F20621E0020720E0120788F43FEFE31649
:1009F000F1040105110531F028F048E050E060E015
:100A000070E017C040E050E060E070E012C040E0ED
:100A1000E41640E0F40640E0040741E0140728F043
:100A200048E150E060E070E004C040E150E060E088
:100A300070E0D801C701042E04C0B695A79597951C
:100A400087950A94D2F788599F4FDC012C9130E2A8
:100A5000A32EB12CC12CD12CD601C501841B950B22
:100A6000A60BB70B821B9109A109B1090097A1053B
:100A7000B10589F4E614F7040805190508F4F2C174
:100A80006DA47EA48FA498A86214730484049504B2
:100A900008F0E8C1F3C16E968FAF6E97082E04C0C0
:100AA000EE0CFF1C001F111F0A94D2F76A2D681B61
:100AB000D201C101062E04C0B695A79597958795DA
:100AC0000A94D2F75C016D01AE28BF28C02AD12A52
:100AD000ADA2BEA2CFA2D8A6720161016E960FACE4
:100AE0006E9704C0CC0CDD1CEE1CFF1C0A94D2F7E0
:100AF000C9A2DAA2EBA2FCA264015301062E04C033
:100B0000D694C794B794A7940A94D2F7D401C3019A
:100B10006E960FAC6E9704C0880F991FAA1FBB1F5B
:100B20000A94D2F7EDA4FEA40FA518A904C0169547
:100B30000795F794E7946A95D2F737014801682A38
:100B4000792A8A2A9B2A6D8E7E8E8F8E98A2EDA09E
:100B5000FEA00FA118A538018824992498018701C7
:100B60002070307065960CAF1DAF2EAF3FAF65970C
:100B7000C601B501A40193010E945F2C7B018C0189
:100B8000C601B501A40193010E945F2CC901DA01DD
:100B90001C012D01C201B10165962CAD3DAD4EADDC
:100BA0005FAD65970E94402C9B01AC018701FF243B
:100BB000EE24AD8CBE8CCF8CD8A0C601AA27BB2753
:100BC00057016801A82AB92ACA2ADB2AA216B30645
:100BD000C406D50600F508942108310841085108DB
:100BE000EDA0FEA00FA118A5AE0CBF1CC01ED11E0B
:100BF000AE14BF04C006D10670F0A216B306C40638
:100C0000D50648F408942108310841085108AE0C73
:100C1000BF1CC01ED11EA21AB30AC40AD50AC6013F
:100C2000B501A40193010E945F2C7B018C01C601D8
:100C3000B501A40193010E945F2CC901DA013C01B6
:100C40004D01C401B30165962CAD3DAD4EAD5FAD18
:100C500065970E94402C9B01AC018701FF24EE2484
:100C60008D8D9E8DAF8DB8A1A070B07057016801B9
:100C7000A82AB92ACA2ADB2AA216B306C406D506B0
:100C800000F5089461087108810891086DA17EA1A2
:100C90008FA198A5A60EB71EC81ED91EA616B70608
:100CA000C806D90670F0A216B306C406D50648F4E5
:100CB00008946108710881089108A60EB71EC81E25
:100CC000D91ED601C501821B930BA40BB50B898FCE
:100CD0009A8FAB8FBC8FD10199278827640153016C
:100CE000A82AB92ACA2ADB2AA9AABAAACBAADCAAA4
:100CF000860175012FEF3FEF40E050E0E222F32242
:100D000004231523A601662777276D964CAF5DAFA8
:100D10006EAF7FAF6D97A9A0BAA0CBA0DCA06FEF9C
:100D20007FEF80E090E0A622B722C822D92289A1D5
:100D30009AA1ABA1BCA11D0144245524C801B7014F
:100D4000A60195010E94402C69966CAF7DAF8EAFD5
:100D50009FAF6997C801B701A20191010E94402C81
:100D60003B014C016D966CAD7DAD8EAD9FAD6D9729
:100D7000A60195010E94402C7B018C016D966CAD03
:100D80007DAD8EAD9FAD6D97A20191010E94402C6B
:100D90005B016C01A8019701260D371D481D591DE7
:100DA00069966CAC7DAC8EAC9FAC6997C401AA27E8
:100DB000BB27280F391F4A1F5B1F2E153F05400711
:100DC000510748F4E12CF12C61E0062F112DAE0CF7
:100DD000BF1CC01ED11ECA01AA27BB27BC01CD0162
:100DE0006A0D7B1D8C1D9D1D698C7A8C8B8C9C8C57
:100DF000661677068806990640F166157705880518
:100E0000990509F043C0D9019927882769962CAD27
:100E10003DAD4EAD5FAD699740705070820F931F2E
:100E2000A41FB51F2DA53EA54FA558A96E960FACC2
:100E30006E9704C0220F331F441F551F0A94D2F728
:100E4000281739074A075B0708F509A91AA92BA92A
:100E50003CA9015010402040304009AB1AAB2BABED
:100E60003CAB14C066247724430121E030E040E02D
:100E700050E029AB3AAB4BAB5CAB0BC0662477249C
:100E8000430119AA1AAA1BAA1CAA03C06624772424
:100E90004301FE01719688E0DF011D928A95E9F712
:100EA000A9A8BAA8CBA8DCA8A98ABA8ACB8ADC8A66
:100EB0006D8A7E8A8F8A988E29A93A894B895C89A6
:100EC000662D7E898F89988DC25ADF4FE2E10C949E
:100ED0009D2CABE5B0E0EFE6F7E00C94812CA8E0A8
:100EE0004E010894811C911CF4016A2E11926A949F
:100EF000E9F729833A834B835C836D837E838F83F9
:100F00009887CE010996FC011192AA95E9F7A98666
:100F1000BA86CB86DC86ED86FE860F87188B298401
:100F20003A844B845C84AD84BE84CF84D888298184
:100F30003A814B815C8169962FAF69976A963FAF82
:100F40006A976B964FAF6B976C965FAF6C976C968A
:100F50006CAC7DAC8EAC9FAC6C9769AA7AAA8BAA5C
:100F60009CAA6D817E818F8198853B014C016DAA81
:100F70007EAA8FAA98AEA114B104C104D10409F0CD
:100F800004C3621473048404950408F000C100E0F3
:100F9000201600E0300601E0400600E0500688F42C
:100FA0001FEF211631044104510439F030F088E07C
:100FB000E82EF12C012D112D18C0EE24FF248701FD
:100FC00014C040E0241640E0340640E0440641E00E
:100FD000540630F0B8E1EB2EF12C012D112D05C097
:100FE000A0E1EA2EF12C012D112DD201C1010E2C10
:100FF00004C0B695A795979587950A94D2F7885916
:101000009F4FDC012C9180E290E0A0E0B0E08E19CF
:101010009F09A00BB10B5C016D01A21AB108C108B8
:10102000D108A9AEBAAECBAEDCAEA114B104C104F6
:10103000D10409F43FC069AD062E04C0220C331C54
:10104000441C551C0A94D2F7A4019301062E04C037
:10105000220F331F441F551F0A94D2F780E290E0FD
:101060008A199B096C96CCACDDACEEACFFAC6C97EE
:1010700004C0F694E794D794C7948A95D2F7870171
:101080007601E22AF32A042B152BEDAAFEAA0FAB58
:1010900018AF6C968CAD9DADAEADBFAD6C9704C076
:1010A000880F991FAA1FBB1F6A95D2F789AB9AAB0D
:1010B000ABABBCAB320188249924B201A1016070B2
:1010C000707021964CAF5DAF6EAF7FAF21976DA969
:1010D0007EA98FA998ADA40193010E945F2C7B018A
:1010E0008C016DA97EA98FA998ADA40193010E94DE
:1010F0005F2CCA01B90121962CAD3DAD4EAD5FAD5F
:1011000021970E94402C9B01AC018701FF24EE2413
:10111000A9A8BAA8CBA8DCA8C601AA27BB27570153
:101120006801A82AB92ACA2ADB2AA216B306C4066D
:10113000D50690F4A20CB31CC41CD51CA214B30495
:10114000C404D50448F0A216B306C406D50620F49C
:10115000A20CB31CC41CD51CA21AB30AC40AD50A1B
:10116000C601B501A40193010E945F2C7B018C0193
:10117000C601B501A40193010E945F2CCA01B90107
:1011800021962CAD3DAD4EAD5FAD2197BAC1211476
:1011900031044104510471F461E070E080E090E0BA
:1011A00020E030E040E050E00E945F2CC901DA010D
:1011B0001C012D0100E0201600E0300601E0400691
:1011C00000E0500688F41FEF211631044104510459
:1011D00039F030F068E0E62EF12C012D112D18C009
:1011E000EE24FF24870114C040E0241640E03406BA
:1011F00040E0440641E0540630F058E1E52EF12C81
:10120000012D112D05C040E1E42EF12C012D112DF1
:10121000D201C1010E2C04C0B695A795979587956C
:101220000A94D2F788599F4FDC012C9130E2A32E0B
:10123000B12CC12CD12CD601C5018E199F09A00B50
:10124000B10B7C018D01E21AF10801091109E9AE27
:10125000FAAE0BAF1CAFE114F1040105110539F42E
:1012600064015301A218B308C408D508E2C0F9AC60
:101270006896FFAE68970F2C04C0220C331C441CE8
:10128000551C0A94D2F78A2D8F1964015301082E38
:1012900004C0D694C794B794A7940A94D2F7A40133
:1012A000930104C0220F331F441F551FFA94D2F735
:1012B0006C966CAC7DAC8EAC9FAC6C9704C0969475
:1012C0008794779467948A95D2F784017301E22A10
:1012D000F32A042B152BEDA6FEA60FA718AB32019F
:1012E00088249924B201A1016070707025964CAFDA
:1012F0005DAF6EAF7FAF2597C601B501A401930125
:101300000E945F2C7B018C01C601B501A4019301F1
:101310000E945F2CCA01B90125962CAD3DAD4EADA2
:101320005FAD25970E94402C9B01AC018701FF24F3
:10133000EE24ADA4BEA4CFA4D8A8C601AA27BB277B
:101340005C016D01AE28BF28C02AD12AA216B306BF
:10135000C406D50690F4A20CB31CC41CD51CA21460
:10136000B304C404D50448F0A216B306C406D506D7
:1013700020F4A20CB31CC41CD51CA21AB30AC40AC4
:10138000D50AC601B501A40193010E945F2C7B011F
:101390008C01C601B501A40193010E945F2CCA0112
:1013A000B90125962CAD3DAD4EAD5FAD25970E94A0
:1013B000402C9B01AC018701FF24EE248DA59EA546
:1013C000AFA5B8A9A070B07057016801A82AB92AC2
:1013D000CA2ADB2AA216B306C406D50690F4A20CCC
:1013E000B31CC41CD51CA214B304C404D50448F017
:1013F000A216B306C406D50620F4A20CB31CC41C66
:10140000D51C6C96ECACFDAC0EAD1FAD6C97689620
:101410000FAC689704C0EE0CFF1C001F111F0A944C
:10142000D2F7E9AAFAAA0BAB1CABA21AB30AC40AF8
:10143000D50A320188249924B201A101607070702C
:1014400029964CAF5DAF6EAF7FAF2997C601B5014E
:10145000A40193010E945F2C7B018C01C601B501A0
:10146000A40193010E945F2CCA01B90129962CADF9
:101470003DAD4EAD5FAD29970E94402C9B01AC0164
:101480008701FF24EE24A9A8BAA8CBA8DCA8C6012E
:10149000AA27BB2757016801A82AB92ACA2ADB2A2A
:1014A000A216B306C406D50690F4A20CB31CC41C45
:1014B000D51CA214B304C404D50448F0A216B30684
:1014C000C406D50620F4A20CB31CC41CD51CA21A59
:1014D000B30AC40AD50AC601B501A40193010E944A
:1014E0005F2C7B018C01C601B501A40193010E9410
:1014F0005F2CCA01B90129962CAD3DAD4EAD5FAD53
:1015000029970E94402C9B01AC018701FF24EE2407
:1015100089A99AA9ABA9BCA9A070B070E82AF92A38
:101520000A2B1B2BE216F3060407150790F4E20CB6
:10153000F31C041D151DE214F3040405150548F001
:10154000E216F3060407150720F4E20CF31C041D51
:10155000151DE21AF30A040B150BD801C70109ACDB
:1015600004C0B695A795979587950A94D2F7898B6D
:101570009A8BAB8BBC8B1D8A1E8A1F8A188E282FD4
:101580003A894B895C896D890CC36A147B048C048D
:101590009D0408F409C300E0A01600E0B00601E0D5
:1015A000C00600E0D00688F41FEFA116B104C10404
:1015B000D10439F030F028E0E22EF12C012D112D6C
:1015C00018C0EE24FF24870114C040E0A41640E0B8
:1015D000B40640E0C40641E0D40630F098E1E92EBC
:1015E000F12C012D112D05C080E1E82EF12C012DEB
:1015F000112DD601C5010E2C04C0B695A79597955F
:1016000087950A94D2F788599F4FDC012C9180E28C
:1016100090E0A0E0B0E08E199F09A00BB10B821BF7
:101620009109A109B1090097A105B10509F04FC0C1
:10163000A614B704C804D90458F06C96ECACFDAC01
:101640000EAD1FAD6C97E214F3040405150568F1A7
:101650006C96ECACFDAC0EAD1FAD6C97E218F308C8
:1016600004091509A40193012A193B094C095D09D4
:10167000AA24BB2465016C966CAD7DAD8EAD9FAD8B
:101680006C976E157F058007910728F4B1E0AB2EAB
:10169000B12CC12CD12CDA01C9018A199B09AC09E2
:1016A000BD098DAB9EABAFABB8AFE98AFA8A0B8BA5
:1016B0001C8B6DA87EA88FA898AC6D8A7E8A8F8AB5
:1016C000988E2E2D3A894B895C896DA96AC26796DE
:1016D0008FAF6797A6019501082E04C0220F331F14
:1016E000441F551F0A94D2F7A0E2AA2EA81A6696A4
:1016F000AFAE6697D201C10104C0B695A795979584
:101700008795AA94D2F76C017D01C22AD32AE42AD4
:10171000F52AC9A6DAA6EBA6FCA682017101679696
:101720000FAC679704C0EE0CFF1C001F111F0A943A
:10173000D2F7EDA2FEA20FA318A76401530166968B
:101740000FAC669704C0D694C794B794A7940A9434
:10175000D2F7A401930167960FAC679704C0220FDC
:10176000331F441F551F0A94D2F76C968CAD9DAD64
:10177000AEADBFAD6C9766960FAC669704C0B695DC
:10178000A795979587950A94D2F73C014D01622A57
:10179000732A842A952A69A27AA28BA29CA26C96AB
:1017A000ECACFDAC0EAD1FAD6C9767960FAC6797B8
:1017B00004C0EE0CFF1C001F111F0A94D2F7ED8E1F
:1017C000FE8E0F8F18A349A55AA56BA57CA53B01DA
:1017D00088249924607070702D964CAF5DAF6EAF09
:1017E0007FAF2D97C601B501A40193010E945F2C24
:1017F0007B018C01C601B501A40193010E945F2CFD
:10180000C901DA011C012D01C201B1012D962CADD7
:101810003DAD4EAD5FAD2D970E94402C9B01AC01BC
:101820008701FF24EE24A9A0BAA0CBA0DCA0C601AA
:10183000AA27BB2757016801A82AB92ACA2ADB2A86
:10184000A216B306C406D50600F50894210831088F
:1018500041085108E9A4FAA40BA51CA5AE0CBF1CB5
:10186000C01ED11EAE14BF04C006D10670F0A21671
:10187000B306C406D50648F4089421083108410887
:101880005108AE0CBF1CC01ED11EA21AB30AC40A56
:10189000D50AC601B501A40193010E945F2C7B010A
:1018A0008C01C601B501A40193010E945F2CC901FE
:1018B000DA013C014D01C401B3012D962CAD3DADC3
:1018C0004EAD5FAD2D970E94402C9B01AC0187016E
:1018D000FF24EE2489A19AA1ABA1BCA1A070B07095
:1018E00057016801A82AB92ACA2ADB2AA216B30618
:1018F000C406D50600F508946108710881089108AE
:1019000069A57AA58BA59CA5A60EB71EC81ED91ED3
:10191000A616B706C806D90670F0A216B306C40606
:10192000D50648F408946108710881089108A60E4C
:10193000B71EC81ED91ED601C501821B930BA40B6E
:10194000B50B898F9A8FAB8FBC8FD10199278827D0
:1019500084017301E82AF92A0A2B1B2B4FEFA42ECE
:101960004FEFB42EC12CD12CAE20BF20C022D122EB
:101970007801002711276DA07EA08FA098A44FEFBB
:101980005FEF60E070E064227522862297228DA1CD
:101990009EA1AFA1B8A5BD018827992765966CAF18
:1019A0007DAF8EAF9FAF6597C601B501A4019301CE
:1019B0000E94402C61966CAF7DAF8EAF9FAF619758
:1019C000C601B50165962CAD3DAD4EAD5FAD6597D9
:1019D0000E94402C1B012C01C801B701A4019301F6
:1019E0000E94402C5B016C01C801B70165962CADCB
:1019F0003DAD4EAD5FAD65970E94402C7B018C01E3
:101A0000A6019501220D331D441D551D61966CAC38
:101A10007DAC8EAC9FAC6197C401AA27BB27280F71
:101A2000391F4A1F5B1F2A153B054C055D0548F40D
:101A3000812C912CE1E0AE2EB12CE80CF91C0A1D92
:101A40001B1DCA01AA27BB2757016801A80EB91E92
:101A5000CA1EDB1EA9013327222761968CAD9DADDE
:101A6000AEADBFAD6197A070B070280F391F4A1F8F
:101A70005B1FE98CFA8C0B8D1C8DEA14FB040C05A2
:101A80001D0570F0AE14BF04C006D10669F56D8D5A
:101A90007E8D8F8D98A1621773078407950720F5B7
:101AA000DA01C9016DA07EA08FA098A486199709BC
:101AB000A809B909E9A4FAA40BA51CA5AE18BF088A
:101AC000C00AD10AEE24FF248701281739074A07E4
:101AD0005B0728F421E0E22EF12C012D112DAE1828
:101AE000BF08C00AD10A02C0DA01C9016D8C7E8C20
:101AF0008F8C98A0681A790A8A0A9B0A498D5A8D98
:101B00006B8D7C8D4A195B096C097D095A016B014B
:101B10002224332421016D8D7E8D8F8D98A1661531
:101B200077058805990528F481E0282E312C412C71
:101B3000512C86017501E218F30804091509A80162
:101B4000970166960FAC669704C0220F331F441F9F
:101B5000551F0A94D2F7D401C30167960FAC67975B
:101B600004C0B695A795979587950A94D2F7282B28
:101B7000392B4A2B5B2B298B3A8B4B8B5C8B6796D3
:101B80000FAC679704C016950795F794E7940A94ED
:101B9000D2F7ED8AFE8A0F8B188F3A894B895C89C0
:101BA0006E2D7E898F89988DC55ADF4FE2E10C94A6
:101BB0009D2CA0E0B0E0EFEDFDE00C94812CDC0169
:101BC0002B01FA019C91923008F439C1EB01888114
:101BD000823008F433C1943069F4843009F02FC1A5
:101BE00011969C9111978981981709F428C1A0E654
:101BF000B0E025C1843009F421C18230A9F49230CB
:101C000009F01DC19A01AD0188E0EA010990AE0119
:101C1000E90109929E018150C1F7E2018981119683
:101C20009C918923818308C1923009F407C11296DF
:101C30002D903C901397EB018A819B811496AD9077
:101C4000BD90CD90DC901797EC80FD800E811F81B8
:101C50009101281B390BB90137FF04C0662777278C
:101C6000621B730B603271050CF061C01216130613
:101C70006CF537014801062E04C09694879477943A
:101C800067940A94D2F721E030E040E050E004C0CD
:101C9000220F331F441F551F6A95D2F72150304041
:101CA000404050402E213F21402351232115310532
:101CB0004105510521F021E030E040E050E079019C
:101CC0008A01E628F728082919293CC0232BD1F1DD
:101CD000260E371E35014601062E04C096948794C1
:101CE000779467940A94D2F721E030E040E050E026
:101CF00004C0220F331F441F551F6A95D2F721508D
:101D00003040404050402A213B214C215D2121158B
:101D100031054105510521F021E030E040E050E07F
:101D200059016A01A628B728C828D9280BC08215EE
:101D300093052CF01C01AA24BB24650103C0EE24EA
:101D4000FF24870111969C91D20111968C919817CE
:101D500009F445C0992339F0A80197012A193B09D4
:101D60004C095D0906C0A60195012E193F09400BDB
:101D7000510B57FD08C011823382228224833583A0
:101D8000468357831DC081E0818333822282882766
:101D90009927DC01821B930BA40BB50B84839583DD
:101DA000A683B7830DC0220F331F441F551F248302
:101DB00035834683578382819381019793838283FE
:101DC0002481358146815781DA01C9010197A10932
:101DD000B1098F5F9F4FAF4FBF4328F30BC0918373
:101DE00033822282EA0CFB1C0C1D1D1DE482F5824D
:101DF0000683178383E08083248135814681578160
:101E000057FF1AC0C901AA2797FDA095BA2F817064
:101E10009070A070B0705695479537952795822B96
:101E2000932BA42BB52B84839583A683B7838281C0
:101E30009381019693838283DF0101C0D201CD019A
:101E4000CDB7DEB7E2E10C949D2CA0E2B0E0EBE26E
:101E5000FFE00C948D2C69837A838B839C832D8384
:101E60003E834F835887E9E0EE2EF12CEC0EFD1EE9
:101E7000CE010196B7010E94E2128E010F5E1F4F44
:101E8000CE010596B8010E94E2128A8991E0892765
:101E90008A8BC701B801AE01475E5F4F0E94D90D22
:101EA0000E940D12A096E6E00C94A92CA0E2B0E0EE
:101EB000ECE5FFE00C948D2C69837A838B839C8303
:101EC0002D833E834F835887F9E0EF2EF12CEC0EE3
:101ED000FD1ECE010196B7010E94E2128E010F5E37
:101EE0001F4FCE010596B8010E94E212C701B8014A
:101EF000AE01475E5F4F0E94D90D0E940D12A09661
:101F0000E6E00C94A92CA0E2B0E0E9E8FFE00C9434
:101F1000812C69837A838B839C832D833E834F83BB
:101F20005887CE010196BE01675F7F4F0E94E21283
:101F3000CE010596BE016F5E7F4F0E94E212998529
:101F4000923088F089898230C8F0943019F4823058
:101F500051F404C0843029F4923081F480E690E09A
:101F6000C6C0923049F420E09A858A89981321E00E
:101F70002A87CE010996BBC0823049F420E09A85B9
:101F80008A89981321E02A8BCE014196B0C02D8416
:101F90003E844F8458886D887E888F88988CEE2484
:101FA000FF248701AA24BB24650140E050E060E0E3
:101FB00070E0E0E0F0E0C10181709070892BE9F001
:101FC000E60CF71C081D191D9A01AB012A0D3B1DDB
:101FD0004C1D5D1D80E090E0A0E0B0E0E614F70449
:101FE0000805190520F481E090E0A0E0B0E0BA0116
:101FF000A901480F591F6A1F7B1FAA0CBB1CCC1CD0
:10200000DD1C97FE08C081E090E0A0E0B0E0A82AC7
:10201000B92ACA2ADB2A3196E032F10549F0660C6A
:10202000771C881C991C5694479437942794C3CFE7
:10203000FA85EA892B893C898B859C85280F391F75
:102040002E5F3F4F17C0CA0181709070892B61F0DD
:1020500016950795F794E79480E090E0A0E0B0E84B
:10206000E82AF92A0A2B1B2B7695679557954795F1
:102070002F5F3F4F77FDE7CF0CC0440F551F661F02
:10208000771F17FD4160EE0CFF1C001F111F215030
:102090003040403090E0590790E0690790E47907BC
:1020A00060F32B8F3C8FDB01CA018F779070A0709B
:1020B000B07080349105A105B10561F447FD0AC0F7
:1020C000E114F1040105110529F0405C5F4F6F4FE9
:1020D0007F4F40781A8EFE1711F081E08A8F4D8F66
:1020E0005E8F6F8F78A383E0898FCE0149960E941F
:1020F0000D12A096E2E10C949D2CA8E1B0E0E3E87B
:10210000F0E10C94892C69837A838B839C832D83E3
:102110003E834F835887B9E0EB2EF12CEC0EFD1E69
:10212000CE010196B7010E94E2128E010F5E1F4F91
:10213000CE010596B8010E94E2122985223008F4EA
:102140007EC03989323010F4B8017CC08A859A8902
:1021500089278A87243011F0223031F4231709F0BF
:102160006EC060E670E06EC0343039F41D861E86A5
:102170001F86188A1C861B8604C0323021F484E036
:102180008987B7015FC02B853C858B899C89281B7B
:10219000390B3C872B87ED84FE840F851889AD8829
:1021A000BE88CF88D88CEA14FB040C051D0540F4CA
:1021B000EE0CFF1C001F111F215030403C872B8765
:1021C00020E030E040E050E080E090E0A0E0B0E4CB
:1021D00060E070E0EA14FB040C051D0540F0282BBC
:1021E000392B4A2B5B2BEA18FB080C091D09B69505
:1021F000A79597958795EE0CFF1C001F111F6F5F29
:102200007F4F6F31710531F7DA01C9018F77907017
:10221000A070B07080349105A105B10561F427FD6F
:102220000AC0E114F1040105110529F0205C3F4FBB
:102230004F4F5F4F20782D873E874F87588BBE01C9
:10224000675F7F4FCB010E940D126896EAE00C9405
:10225000A52CA8E1B0E0EFE2F1E10C948D2C6983AC
:102260007A838B839C832D833E834F83588789E0B9
:10227000E82EF12CEC0EFD1ECE010196B7010E9456
:10228000E2128E010F5E1F4FCE010596B8010E942B
:10229000E2128985823040F08989823028F0C701B6
:1022A000B8010E945A1301C08FEF6896E6E00C94C3
:1022B000A92CA8E1B0E0EFE5F1E10C948D2C698345
:1022C0007A838B839C832D833E834F83588789E059
:1022D000E82EF12CEC0EFD1ECE010196B7010E94F6
:1022E000E2128E010F5E1F4FCE010596B8010E94CB
:1022F000E2128985823040F08989823028F0C70156
:10230000B8010E945A1301C08FEF6896E6E00C9462
:10231000A92CA8E1B0E0EFE8F1E10C948D2C6983E1
:102320007A838B839C832D833E834F83588789E0F8
:10233000E82EF12CEC0EFD1ECE010196B7010E9495
:10234000E2128E010F5E1F4FCE010596B8010E946A
:10235000E2128985823040F08989823028F0C701F5
:10236000B8010E945A1301C081E06896E6E00C941F
:10237000A92CACE0B0E0EFEBF1E10C94912C698377
:102380007A838B839C83CE010196BE016B5F7F4F66
:102390000E94E2128D81823061F1823050F18430EE
:1023A00021F48E81882351F12EC02F81388537FD8D
:1023B00020C06E812F3131051CF06623F9F023C057
:1023C0008EE190E0821B930B29853A854B855C85D5
:1023D00004C056954795379527958A95D2F7662379
:1023E000B1F050954095309521953F4F4F4F5F4F3D
:1023F0000EC020E030E040E050E009C02FEF3FEF9A
:102400004FEF5FE704C020E030E040E050E8B90162
:10241000CA012C96E2E00C94AD2CDF92EF92FF9271
:102420000F931F93FC01E480F58006811781D18012
:102430008081823048F480E090E0A0E1B0E0E82ABA
:10244000F92A0A2B1B2BA5C0843009F49FC08230C7
:1024500021F4EE24FF24870105C0E114F1040105F5
:10246000110519F4E0E0F0E096C0628173819FEFFE
:10247000623879070CF05BC022E83FEF261B370B70
:102480002A3131052CF020E030E040E050E02AC055
:10249000B801A701022E04C0769567955795479518
:1024A0000A94D2F781E090E0A0E0B0E004C0880F89
:1024B000991FAA1FBB1F2A95D2F70197A109B1093D
:1024C0008E219F21A023B1230097A105B10521F002
:1024D00081E090E0A0E0B0E09A01AB01282B392B1D
:1024E0004A2B5B2BDA01C9018F779070A070B07016
:1024F00080349105A105B10539F427FF09C0205C9E
:102500003F4F4F4F5F4F04C0215C3F4F4F4F5F4FD6
:10251000E0E0F0E02030A0E03A07A0E04A07A0E4C5
:102520005A0710F0E1E0F0E079018A0127C0603835
:10253000710564F5FB01E158FF4FD801C7018F77A2
:102540009070A070B07080349105A105B10539F488
:10255000E7FE0DC080E490E0A0E0B0E004C08FE3AF
:1025600090E0A0E0B0E0E80EF91E0A1F1B1F17FF65
:1025700005C016950795F794E794319687E0169570
:102580000795F794E7948A95D1F705C0EE24FF24C8
:102590008701EFEFF0E06E2F679566276795902F24
:1025A0009F77D794DD24D7948E2F8695492F462B7D
:1025B000582F5D29B701CA011F910F91FF90EF902D
:1025C000DF900895FC01DB01408151812281622F5F
:1025D0006F7770E0221F2227221F9381892F880F97
:1025E000822B282F30E0991F9927991F11969C93D1
:1025F000119721153105A9F54115510561057105A1
:1026000011F482E037C082E89FEF13969C938E937B
:1026100012979A01AB0167E0220F331F441F551F29
:102620006A95D1F783E08C930DC0220F331F441FAE
:10263000551F12968D919C911397019713969C9319
:102640008E931297203080E0380780E0480780E4BE
:10265000580758F314962D933D934D935C93179719
:1026600008952F3F310579F4411551056105710534
:1026700019F484E08C93089564FF03C081E08C9387
:1026800012C01C9210C02F57304013963C932E93CB
:10269000129783E08C9387E0440F551F661F771FC6
:1026A0008A95D1F7706414964D935D936D937C93E6
:1026B000179708951F93DC01FB019C91923008F459
:1026C00047C08081823008F443C0943051F41196A1
:1026D0001C91843099F58181682F70E0611B71092C
:1026E0003FC0843021F0923031F48230B9F18181E1
:1026F000882389F12DC011961C9111978230F1F039
:1027000081811817D9F412962D913C9113978281EB
:1027100093818217930794F028173907BCF0149619
:102720008D919D910D90BC91A02D24813581468184
:102730005781281739074A075B0718F4112341F01E
:102740000AC082179307A407B50740F4112319F0B4
:1027500061E070E005C06FEF7FEF02C060E070E005
:10276000CB011F910895DF93CF93CDB7DEB72897A4
:102770000FB6F894DEBF0FBECDBFCE0101969D838C
:102780008C83E0E8F1E0FF83EE83F3E0F887EE81ED
:10279000FF8100808E819F8101969F838E83EC81D3
:1027A000FD8100828C819D8101969D838C8398851B
:1027B00091509887E885EE2351F78CE494E10E94CC
:1027C0000F1688EE93E00E940A17CE0101960E9430
:1027D0008B1628960FB6F894DEBF0FBECDBFCF91F3
:1027E000DF910895DF93CF93CDB7DEB728970FB66B
:1027F000F894DEBF0FBECDBF8A837C836B835E837C
:102800004D8338872F8381E089838F819885009756
:10281000C1F18A818330A8F58A81282F30E0C9016F
:10282000880F991F820F931F0196880F991FFC0133
:10283000E856FE4F8D819E81918380838A81282F67
:1028400030E0C901880F991F820F931F880F991FCD
:10285000FC01E856FE4F8B819C81918380838A81A5
:10286000282F30E0C901880F991F820F931F880F0E
:10287000991FFC01E456FE4F8F81988591838083D8
:1028800001C01982898128960FB6F894DEBF0FBE69
:10289000CDBFCF91DF910895DF93CF930F92CDB746
:1028A000DEB71982198269C08981282F30E0C901F9
:1028B000880F991F820F931F0196880F991FFC01A3
:1028C000E856FE4F808191810097A1F58981282FDC
:1028D00030E0C901880F991F820F931F880F991F3D
:1028E000FC01E456FE4F0190F081E02D09958981AD
:1028F000482F50E08981282F30E0C901880F991FA7
:10290000820F931F880F991FFC01E856FE4F8081AC
:1029100091819C0121503040CA01880F991F840F7A
:10292000951F0196880F991FFC01E856FE4F3183D1
:10293000208320C08981282F30E0C901880F991F8A
:10294000820F931F0196880F991FFC01E856FE4FD6
:1029500080819181AC0141505040C901880F991F7D
:10296000820F931F0196880F991FFC01E856FE4FB6
:102970005183408389818F5F89838981833008F403
:1029800093CF0F90CF91DF910895DF93CF9300D035
:1029900000D000D0CDB7DEB79A838983E981FA8170
:1029A0008081882329F0E981FA818081823041F495
:1029B000A3E5B0E0E3E5F0E0808180688C9307C098
:1029C000A3E5B0E0E3E5F0E080818F778C93E981C7
:1029D000FA818081282F30E03E832D838D819E8176
:1029E0008130910521F12D813E81223031052CF479
:1029F0008D819E81009761F046C02D813E812230FD
:102A0000310521F18D819E818330910571F13BC0AB
:102A1000A3E5B0E0E3E5F0E080818F7B8C93A3E554
:102A2000B0E0E3E5F0E08081877F8C932CC0A3E5E4
:102A3000B0E0E3E5F0E0808180648C93A3E5B0E052
:102A4000E3E5F0E08081877F8C931DC0A3E5B0E0D3
:102A5000E3E5F0E080818F7B8C93A3E5B0E0E3E5D4
:102A6000F0E0808188608C930EC0A3E5B0E0E3E5E0
:102A7000F0E0808180648C93A3E5B0E0E3E5F0E0D2
:102A8000808188608C93A3E5B0E0E3E5F0E080818D
:102A90008F7C8C93A3E5B0E0E3E5F0E08081282F04
:102AA000E981FA818181882F90E082959295907FCB
:102AB0009827807F9827822B8C93A3E5B0E0E3E5ED
:102AC000F0E08081887F8C93A3E5B0E0E3E5F0E05F
:102AD0009081E981FA818281892B8C93E981FA8145
:102AE0008081282F30E03C832B838B819C81009751
:102AF00031F02B813C812230310549F00FC0A9E52E
:102B0000B0E0E9E5F0E0808181608C9307C0A9E541
:102B1000B0E0E9E5F0E0808182608C9326960FB604
:102B2000F894DEBF0FBECDBFCF91DF910895DF9344
:102B3000CF93CDB7DEB7ECE5F0E01082E3E5F0E04F
:102B40001082E2E5F0E01082A9E5B0E0E9E5F0E00E
:102B500080818C7F8C93CF91DF910895DF93CF9309
:102B6000CDB7DEB7E2E5F0E08081CF91DF91089547
:102B7000DF93CF9300D000D0CDB7DEB79A8389839F
:102B8000E981FA818081282F30E03C832B838B817F
:102B90009C8181309105A1F12B813C81223031054E
:102BA0002CF48B819C81009761F032C02B813C8199
:102BB0002230310579F08B819C8183309105B9F009
:102BC00027C0E2E5F0E0A981BA8113968C911397B2
:102BD00080831EC0A2E5B0E0E981FA8183818C93F5
:102BE000ACE5B0E0E981FA8184818C9311C0ECE519
:102BF000F0E0A981BA8114968C911497808308C063
:102C0000ECE5F0E0A981BA8114968C911497808349
:102C10000F900F900F900F90CF91DF910895DF9359
:102C2000CF9300D0CDB7DEB79A83898389819A810B
:102C3000009731F089819A8190939101809390015E
:102C40000F900F90CF91DF9108951F920F920FB6C2
:102C50000F9211242F933F934F935F936F937F9322
:102C60008F939F93AF93BF93EF93FF93DF93CF9394
:102C7000CDB7DEB78091900190919101009729F036
:102C8000E0919001F09191010995CF91DF91FF9131
:102C9000EF91BF91AF919F918F917F916F915F91D4
:102CA0004F913F912F910F900FBE0F901F9018954D
:102CB0001F920F920FB60F9211242F933F934F93B1
:102CC0005F936F937F938F939F93AF93BF93EF9394
:102CD000FF93DF93CF93CDB7DEB7809190019091B2
:102CE0009101009729F0E0919001F09191010995EF
:102CF000CF91DF91FF91EF91BF91AF919F918F9114
:102D00007F916F915F914F913F912F910F900FBEE7
:102D10000F901F901895DF93CF9300D0CDB7DEB7FB
:102D20009A838983AFE4B0E0EFE4F0E080818C7FA8
:102D30008C93AFE4B0E0EFE4F0E08081982FE9817C
:102D4000FA8180818370892B8C93AEE4B0E0EEE44D
:102D5000F0E08081877E8C93AEE4B0E0EEE4F0E0BA
:102D60008081282FE981FA818081882F90E08C7002
:102D70009070880F991F822B8C93AFE4B0E0EFE442
:102D8000F0E080818F738C93AFE4B0E0EFE4F0E08B
:102D90008081282FE981FA818181882F90E00024A9
:102DA000969587950794969587950794982F802DEB
:102DB000822B8C93A3E5B0E0E3E5F0E08081887F8F
:102DC0008C93AEE4B0E0EEE4F0E09081E981FA812A
:102DD0008281892B8C93A9E5B0E0E9E5F0E0808160
:102DE00080618C93ECE4F0E01182108280E29EE43A
:102DF0000E941C170F900F90CF91DF910895DF93E1
:102E0000CF93CDB7DEB7ECE4F0E080819181CF9134
:102E1000DF910895DF93CF9300D0CDB7DEB79A83CB
:102E20008983EAE4F0E089819A81918380830F901D
:102E30000F90CF91DF910895DF93CF9300D0CDB75E
:102E4000DEB79A838983E6E4F0E089819A819183F1
:102E500080830F900F90CF91DF910895DF93CF93F0
:102E600000D0CDB7DEB79A83898389819A81009794
:102E700031F089819A8190939101809390010F9014
:102E80000F90CF91DF9108951F920F920FB60F927E
:102E900011242F933F934F935F936F937F938F935F
:102EA0009F93AF93BF93EF93FF93DF93CF93CDB7F0
:102EB000DEB78091900190919101009729F0E09107
:102EC0009001F09191010995CF91DF91FF91EF91E0
:102ED000BF91AF919F918F917F916F915F914F9132
:102EE0003F912F910F900FBE0F901F901895DF9379
:102EF000CF93CDB7DEB7AFE5B0E0EFE5F0E080818E
:102F000080688C93CF91DF910895DF93CF93CDB7F5
:102F1000DEB7AFE5B0E0EFE5F0E080818F778C932E
:102F2000CF91DF910895DF93CF93CDB7DEB7A5E5BD
:102F3000B0E0E5E5F0E080818D7F8C93A5E5B0E021
:102F4000E5E5F0E0808181608C93A5E5B0E0E5E502
:102F5000F0E08081877F8C93A5E5B0E0E5E5F0E0C7
:102F6000808184608C93A4E5B0E0E4E5F0E08081AA
:102F700080648C93CF91DF910895DF93CF93CDB789
:102F8000DEB72A970FB6F894DEBF0FBECDBF898398
:102F90006A838981282F30E03A87298789859A8535
:102FA0008130910509F466C029853A8522303105C2
:102FB00009F4BBC089859A85009709F0D4C08A813D
:102FC000282F30E038872F838F81988581309105B5
:102FD00021F12F813885223031052CF48F8198859D
:102FE000009761F0C0C02F8138852230310521F172
:102FF0008F8198858330910571F1B5C0A5E5B0E06A
:10300000E5E5F0E0808182608C93A5E5B0E0E5E540
:10301000F0E0808181608C93A6C0A5E5B0E0E5E595
:10302000F0E0808182608C93A5E5B0E0E5E5F0E01A
:1030300080818E7F8C9397C0A5E5B0E0E5E5F0E058
:1030400080818D7F8C93A5E5B0E0E5E5F0E080819F
:1030500081608C9388C0A5E5B0E0E5E5F0E0808173
:103060008D7F8C93A5E5B0E0E5E5F0E080818E7F73
:103070008C9379C08A81282F30E03E832D838D8107
:103080009E818130910521F12D813E8122303105D3
:103090002CF48D819E81009761F065C02D813E8169
:1030A0002230310521F18D819E818330910571F1AE
:1030B0005AC0A5E5B0E0E5E5F0E0808188608C933A
:1030C000A5E5B0E0E5E5F0E0808184608C934BC03D
:1030D000A5E5B0E0E5E5F0E0808188608C93A5E5AA
:1030E000B0E0E5E5F0E080818B7F8C933CC0A5E506
:1030F000B0E0E5E5F0E08081877F8C93A5E5B0E066
:10310000E5E5F0E0808184608C932DC0A5E5B0E01A
:10311000E5E5F0E08081877F8C93A5E5B0E0E5E50B
:10312000F0E080818B7F8C931EC08A81282F30E055
:103130003C832B838B819C81009731F02B813C81D8
:103140002130310549F00FC0A4E5B0E0E4E5F0E03E
:10315000808180648C9307C0A4E5B0E0E4E5F0E0F2
:1031600080818F7B8C932A960FB6F894DEBF0FBEBA
:10317000CDBFCF91DF910895DF93CF9300D00F9211
:10318000CDB7DEB789838981282F30E03B832A833E
:103190008A819B818130910589F02A813B8122308F
:1031A0003105A1F08A819B810097B9F4ABE5B0E0CD
:1031B000EBE5F0E0808180648C930FC0ABE5B0E07C
:1031C000EBE5F0E0808180688C9307C0ABE5B0E070
:1031D000EBE5F0E0808180628C930F900F900F9070
:1031E000CF91DF910895DF93CF9300D00F92CDB7A9
:1031F000DEB789838981282F30E03B832A838A8147
:103200009B818130910589F02A813B8122303105F3
:10321000A1F08A819B810097B9F4ABE5B0E0EBE5C2
:10322000F0E080818F7B8C930FC0ABE5B0E0EBE5E5
:10323000F0E080818F778C9307C0ABE5B0E0EBE5E1
:10324000F0E080818F7D8C930F900F900F90CF9145
:10325000DF910895DF93CF9300D000D00F92CDB7C8
:10326000DEB789837B836A838A819B81009739F1EA
:103270008981282F30E03D832C838C819D81813092
:10328000910581F02C813D812230310591F08C81B6
:103290009D810097A1F48A819B81909393018093F3
:1032A00092010DC08A819B81909395018093940136
:1032B00006C08A819B8190939701809396010F901D
:1032C0000F900F900F900F90CF91DF9108951F9264
:1032D0000F920FB60F9211242F933F934F935F934A
:1032E0006F937F938F939F93AF93BF93EF93FF93CE
:1032F000DF93CF93CDB7DEB7809192019091930188
:10330000009729F0E0919201F09193010995CF91F6
:10331000DF91FF91EF91BF91AF919F918F917F913D
:103320006F915F914F913F912F910F900FBE0F9032
:103330001F9018951F920F920FB60F9211242F9382
:103340003F934F935F936F937F938F939F93AF932D
:10335000BF93EF93FF93DF93CF93CDB7DEB7809109
:10336000940190919501009729F0E0919401F091DA
:1033700095010995CF91DF91FF91EF91BF91AF91A9
:103380009F918F917F916F915F914F913F912F917D
:103390000F900FBE0F901F9018951F920F920FB6AF
:1033A0000F9211242F933F934F935F936F937F93CB
:1033B0008F939F93AF93BF93EF93FF93DF93CF933D
:1033C000CDB7DEB78091960190919701009729F0D3
:1033D000E0919601F09197010995CF91DF91FF91CE
:1033E000EF91BF91AF919F918F917F916F915F917D
:1033F0004F913F912F910F900FBE0F901F901895F6
:10340000DF93CF93CDB7DEB729970FB6F894DEBF21
:103410000FBECDBF89836A834B838B81282F30E019
:103420003987288788859985009709F475C028858C
:1034300039852130310509F0E2C08981282F30E03B
:103440003F832E838E819F818130910549F12E81AA
:103450003F81223031052CF48E819F81009761F0ED
:10346000CEC02E813F812230310571F18E819F8146
:1034700083309105E9F1C3C0AAE3B0E0EAE3F0E0EC
:103480008081482F8A81282F30E081E090E0022E51
:1034900002C0880F991F0A94E2F7842B8C93AFC067
:1034A000A7E3B0E0E7E3F0E08081482F8A81282F8E
:1034B00030E081E090E0022E02C0880F991F0A944C
:1034C000E2F7842B8C939BC0A4E3B0E0E4E3F0E04C
:1034D0008081482F8A81282F30E081E090E0022E01
:1034E00002C0880F991F0A94E2F7842B8C9387C03F
:1034F000A1E3B0E0E1E3F0E08081482F8A81282F4A
:1035000030E081E090E0022E02C0880F991F0A94FB
:10351000E2F7842B8C9373C08981282F30E03D83A0
:103520002C838C819D818130910559F12C813D81C5
:10353000223031052CF48C819D81009769F05FC0A9
:103540002C813D812230310589F18C819D81833030
:10355000910509F440C053C0AAE3B0E0EAE3F0E00B
:103560008081482F8A81282F30E081E090E0022E70
:1035700002C0880F991F0A94E2F7809584238C93E8
:103580003EC0A7E3B0E0E7E3F0E08081482F8A8106
:10359000282F30E081E090E0022E02C0880F991FB2
:1035A0000A94E2F7809584238C9329C0A4E3B0E0C9
:1035B000E4E3F0E08081482F8A81282F30E081E029
:1035C00090E0022E02C0880F991F0A94E2F78095BE
:1035D00084238C9314C0A1E3B0E0E1E3F0E08081A8
:1035E000482F8A81282F30E081E090E0022E02C02F
:1035F000880F991F0A94E2F7809584238C9329966B
:103600000FB6F894DEBF0FBECDBFCF91DF91089506
:10361000DF93CF93CDB7DEB729970FB6F894DEBF0F
:103620000FBECDBF89836A834B838B81282F30E007
:103630003987288788859985009709F475C028857A
:1036400039852130310509F0E2C08981282F30E029
:103650003F832E838E819F818130910549F12E8198
:103660003F81223031052CF48E819F81009761F0DB
:10367000CEC02E813F812230310571F18E819F8134
:1036800083309105E9F1C3C0ABE3B0E0EBE3F0E0D8
:103690008081482F8A81282F30E081E090E0022E3F
:1036A00002C0880F991F0A94E2F7842B8C93AFC055
:1036B000A8E3B0E0E8E3F0E08081482F8A81282F7A
:1036C00030E081E090E0022E02C0880F991F0A943A
:1036D000E2F7842B8C939BC0A5E3B0E0E5E3F0E038
:1036E0008081482F8A81282F30E081E090E0022EEF
:1036F00002C0880F991F0A94E2F7842B8C9387C02D
:10370000A2E3B0E0E2E3F0E08081482F8A81282F35
:1037100030E081E090E0022E02C0880F991F0A94E9
:10372000E2F7842B8C9373C08981282F30E03D838E
:103730002C838C819D818130910559F12C813D81B3
:10374000223031052CF48C819D81009769F05FC097
:103750002C813D812230310589F18C819D8183301E
:10376000910509F440C053C0ABE3B0E0EBE3F0E0F7
:103770008081482F8A81282F30E081E090E0022E5E
:1037800002C0880F991F0A94E2F7809584238C93D6
:103790003EC0A8E3B0E0E8E3F0E08081482F8A81F2
:1037A000282F30E081E090E0022E02C0880F991FA0
:1037B0000A94E2F7809584238C9329C0A5E3B0E0B6
:1037C000E5E3F0E08081482F8A81282F30E081E016
:1037D00090E0022E02C0880F991F0A94E2F78095AC
:1037E00084238C9314C0A2E3B0E0E2E3F0E0808194
:1037F000482F8A81282F30E081E090E0022E02C01D
:10380000880F991F0A94E2F7809584238C93299658
:103810000FB6F894DEBF0FBECDBFCF91DF910895F4
:10382000DF93CF9300D000D00F92CDB7DEB78A835D
:103830006B838FEF89838A81282F30E03D832C832F
:103840004C815D814130510541F18C819D818230F7
:10385000910534F42C813D812115310561F052C070
:103860004C815D814230510551F18C819D818330C5
:103870009105B9F147C0E9E3F0E08081282F30E0FD
:103880008B81882F90E0A90102C0559547958A95B4
:10389000E2F7CA018170898335C0E6E3F0E08081F8
:1038A000282F30E08B81882F90E0A90102C0559528
:1038B00047958A95E2F7CA018170898323C0E3E3C3
:1038C000F0E08081282F30E08B81882F90E0A901E3
:1038D00002C0559547958A95E2F7CA0181708983A0
:1038E00011C0E0E3F0E08081282F30E08B81882F49
:1038F00090E0A90102C0559547958A95E2F7CA0163
:103900008170898389810F900F900F900F900F9095
:10391000CF91DF910895DF93CF93CDB7DEB728978E
:103920000FB6F894DEBF0FBECDBF89836A838A814C
:10393000282F30E038872F838F8198850097C9F131
:103940002F8138852130310509F061C08981282F08
:1039500030E03E832D838D819E8181309105D1F0B1
:103960002D813E81223031052CF48D819E8100977E
:1039700061F04DC02D813E812230310581F08D8175
:103980009E818330910581F042C0EAE3F0E08FEF41
:1039900080833DC0E7E3F0E08FEF808338C0E4E34D
:1039A000F0E08FEF808333C0E1E3F0E08FEF8083BE
:1039B0002EC08981282F30E03C832B838B819C8112
:1039C00081309105C9F02B813C81223031052CF4E6
:1039D0008B819C81009761F01AC02B813C81223041
:1039E000310571F08B819C818330910569F00FC0A6
:1039F000EAE3F0E010820BC0E7E3F0E0108207C0DA
:103A0000E4E3F0E0108203C0E1E3F0E010822896E6
:103A10000FB6F894DEBF0FBECDBFCF91DF910895F2
:103A2000DF93CF9300D000D0CDB7DEB789836A8310
:103A30008981282F30E03C832B838B819C818130CE
:103A40009105D1F02B813C81223031052CF48B8102
:103A50009C81009761F01EC02B813C812230310592
:103A600081F08B819C818330910581F013C0EBE361
:103A7000F0E08A8180830EC0E8E3F0E08A818083F1
:103A800009C0E5E3F0E08A81808304C0E2E3F0E06E
:103A90008A8180830F900F900F900F90CF91DF91CC
:103AA0000895DF93CF9300D000D0CDB7DEB78A83DF
:103AB0008FEF89838A81282F30E03C832B838B8191
:103AC0009C8181309105D1F02B813C8122303105E0
:103AD0002CF48B819C81009761F01EC02B813C816E
:103AE0002230310581F08B819C818330910581F0FA
:103AF00013C0E9E3F0E0808189830EC0E6E3F0E0E3
:103B00008081898309C0E3E3F0E08081898304C078
:103B1000E0E3F0E08081898389810F900F900F901E
:103B20000F90CF91DF910895DF93CF9300D000D015
:103B300000D0CDB7DEB78C837E836D8381E08B832D
:103B4000A7E2B0E0E7E2F0E08081807E8C93A7E21C
:103B5000B0E0E7E2F0E08081982F8C818770892BBC
:103B60008C93A6E2B0E0E6E2F0E0808180648C9382
:103B70001A82198205C089819A8101969A83898364
:103B8000E6E2F0E0808182958F70882F90E081706E
:103B90009070009731F489819A8125E780339207EC
:103BA00050F3E6E2F0E0808182958F70882F90E0FC
:103BB00081709070982F81E089278823F1F48D819E
:103BC0009E810097D1F0A6E2B0E0E6E2F0E08081CD
:103BD00080618C93E4E2F0E08081282F30E0E5E220
:103BE000F0E08081882F90E0982F8827822B932BFC
:103BF000ED81FE819183808301C01B828B8126969B
:103C00000FB6F894DEBF0FBECDBFCF91DF91089500
:103C1000DF93CF9300D0CDB7DEB79A838983A7E235
:103C2000B0E0E7E2F0E080818F738C93A7E2B0E030
:103C3000E7E2F0E09081E981FA818081892B8C9321
:103C4000A6E2B0E0E6E2F0E0808180788C93A6E224
:103C5000B0E0E6E2F0E09081E981FA818181892B90
:103C60008C93A6E2B0E0E6E2F0E08081877F8C935F
:103C7000A6E2B0E0E6E2F0E0808180688C930F90ED
:103C80000F90CF91DF910895DF93CF930F92CDB72F
:103C9000DEB78983A7E2B0E0E7E2F0E08081807ED2
:103CA0008C93A7E2B0E0E7E2F0E08081982F898171
:103CB0008770892B8C93A6E2B0E0E6E2F0E0808189
:103CC00080648C93E6E2F0E0808182958F70882F8B
:103CD00090E0817090700097A9F3A6E2B0E0E6E270
:103CE000F0E0808180618C93E4E2F0E0808191815A
:103CF0000F90CF91DF910895DF93CF9300D000D044
:103D0000CDB7DEB79A838983E981FA81808161E04A
:103D10000E948B1CE981FA818181282F30E03C834D
:103D20002B838B819C81009761F02B813C8121301A
:103D3000310569F4E981FA8180816FEF0E94101DDD
:103D400006C0E981FA81808160E00E94101D0F9019
:103D50000F900F900F90CF91DF910895DF93CF9345
:103D600000D000D00F92CDB7DEB79A8389836B83E2
:103D7000E981FA818181282F30E03D832C838C8179
:103D80009D810097A1F02C813D8121303105F9F40E
:103D9000E981FA8120818B81882F90E0FC01ED5729
:103DA000FE4F9081822F692F0E94101D10C0E98163
:103DB000FA8120818B81882F90E0FC01ED57FE4F26
:103DC0008081982F9095822F692F0E94101D0F904F
:103DD0000F900F900F900F90CF91DF910895DF9388
:103DE000CF9300D000D0CDB7DEB79A838983E98125
:103DF000FA818181282F30E03C832B838B819C8149
:103E0000009761F02B813C812130310569F4E98113
:103E1000FA8180816FEF0E94101D06C0E981FA814E
:103E2000808160E00E94101D0F900F900F900F9006
:103E3000CF91DF910895DF93CF93CDB7DEB767972A
:103E40000FB6F894DEBF0FBECDBF9C8B8B8B7E8BE5
:103E50006D8B4F8B8F899AE0692F0E94202C882FC1
:103E600090E09A8B898B8F899AE0692F0E94202C91
:103E7000892F882F90E0988B8F87ED89FE8980812C
:103E800067E040E00E94081B2F858D899E89622F84
:103E90000E94AE1E80E090E0ACE8B2E48B879C8785
:103EA000AD87BE876B857C858D859E8520E030E063
:103EB0004AEF54E40E94830FDC01CB018F83988783
:103EC000A987BA876F81788589859A8520E030E057
:103ED00040E85FE30E94891188232CF481E090E0A0
:103EE0009E838D833FC06F81788589859A8520E088
:103EF0003FEF4FE757E40E94291118164CF56B85E8
:103F00007C858D859E8520E030E040E251E40E9472
:103F1000830FDC01CB01BC01CD010E94C800DC0194
:103F2000CB019E838D830FC088EC90E09C838B83B4
:103F30008B819C810197F1F79C838B838D819E817E
:103F400001979E838D838D819E81009769F714C0B0
:103F50006F81788589859A850E94C800DC01CB0134
:103F60009E838D838D819E819A83898389819A81A5
:103F70000197F1F79A838983EB89FC89808167E057
:103F800041E00E94081B29898B899C89622F0E942D
:103F9000AE1E67960FB6F894DEBF0FBECDBFCF91B1
:103FA000DF910895DF93CF93CDB7DEB728970FB693
:103FB000F894DEBF0FBECDBF83E065E041E00E9414
:103FC000001ACE0101969D838C83EDE8F1E0FF831A
:103FD000EE83F3E0F887EE81FF8100808E819F8180
:103FE00001969F838E83EC81FD8100828C819D816F
:103FF00001969D838C83988591509887E885EE2360
:1040000051F7CE0101960E948B1628960FB6F894B0
:10401000DEBF0FBECDBFCF91DF910895DF93CF9369
:1040200000D000D0CDB7DEB79C838B838B819C8181
:10403000009701F18B819C81853B9105D8F42B8100
:104040003C8184E690E0AC01249FC001259F900D47
:10405000349F900D11248C569E4E29E030E0B9011A
:104060000E942C2CCB019A83898389819A810E949A
:104070000A1704C084EF91E00E940A170F900F9076
:104080000F900F90CF91DF910895DF93CF9300D0E1
:1040900000D0CDB7DEB79A838983E981FA81808128
:1040A000E981FA819181692F41E00E94001AE9813A
:1040B000FA818281282F30E03C832B838B819C8185
:1040C000009781F02B813C8121303105A9F4E981F1
:1040D000FA818081E981FA819181692F40E00E9413
:1040E000081B0AC0E981FA818081E981FA81918106
:1040F000692F41E00E94081B0F900F900F900F90C6
:10410000CF91DF910895DF93CF9300D000D0CDB74A
:10411000DEB79A838983E981FA818281282F30E092
:104120003C832B838B819C81009781F02B813C8188
:1041300021303105A9F4E981FA818081E981FA8190
:104140009181692F41E00E94081B0AC0E981FA8130
:104150008081E981FA819181692F40E00E94081BEA
:104160000F900F900F900F90CF91DF910895DF93F4
:10417000CF9300D000D0CDB7DEB79A838983E98191
:10418000FA818281282F30E03C832B838B819C81B4
:10419000009781F02B813C8121303105A9F4E98120
:1041A000FA818081E981FA819181692F40E00E9442
:1041B000081B0AC0E981FA818081E981FA81918135
:1041C000692F41E00E94081B0F900F900F900F90F5
:1041D000CF91DF910895AF92BF92CF92DF92EF928D
:1041E000FF920F931F93DF93CF93CDB7DEB7C656E1
:1041F000D0400FB6F894DEBF0FBECDBF29873A87F7
:104200004B875C876D877E878F87988B81E089835A
:104210001A821B821C821D821E821F82188689853B
:104220009A85892B9B85892B9C85892B9D85892B3C
:104230009E85892B9F85892B9889892B882309F056
:1042400062C380E30E94FC28EFC329813A814B813D
:104250005C816D817E818F819885A22EB32EC42EC4
:10426000D52EE62EF72E082F192F2A2D3B2D4C2D5B
:104270005D2D6E2D7F2D802F912F01E00E94490032
:1042800029A33AA34BA35CA36DA37EA38FA398A7F6
:1042900029A13AA14BA15CA16DA17EA18FA198A5F6
:1042A00002E00E94490029A73AA74BA75CA76DA787
:1042B0007EA78FA798AB89A199A5890F89AB81E0CB
:1042C00089AF99A989A1981708F019AE9AA18AA572
:1042D000980F9AAB91E09AAF8AA99AA1891708F032
:1042E0001AAE89AD9AA9890F8BAF81E08CAF9BADD7
:1042F0008AA9981708F01CAE9AAD8CAD982B9AAF8E
:104300009BAD9AAB8BA19BA5890F8BAB81E08DAF49
:104310009BA98BA1981708F01DAE9AAD8BA9980F99
:104320009EAF91E09FAF8EAD9BA9891708F01FAE9D
:104330008DAD9FAD892B8DAF8EAD8BAB9CA18CA528
:10434000980F9CAB91E021969FAF21978CA99CA1DF
:10435000891718F021961FAE21978DAD9CA9890F62
:1043600022968FAF229781E023968FAF23972296D4
:104370009FAD22978CA9981718F023961FAE23970C
:1043800021969FAD219723968FAD2397982B219649
:104390009FAF219722969FAD22979CAB8DA19DA5A3
:1043A000890F8DAB81E024968FAF24979DA98DA1B5
:1043B000981718F024961FAE249721969FAD219749
:1043C0008DA9980F25969FAF259791E026969FAFD0
:1043D000269725968FAD25979DA9891718F02696C3
:1043E0001FAE269724968FAD249726969FAD2697CD
:1043F000892B24968FAF249725968FAD25978DAB6B
:104400009EA18EA5980F9EAB91E027969FAF279710
:104410008EA99EA1891718F027961FAE279724967C
:104420008FAD24979EA9890F28968FAF289781E09A
:1044300029968FAF299728969FAD28978EA9981710
:1044400018F029961FAE299727969FAD2797299692
:104450008FAD2997982B27969FAF279728969FADCA
:1044600028979EAB8FA19FA5890F8FAB81E02A96DD
:104470008FAF2A979FA98FA1981718F02A961FAE81
:104480002A9727969FAD27978FA9980F2B969FAFB6
:104490002B9791E02C969FAF2C972B968FAD2B9757
:1044A0009FA9891718F02C961FAE2C972A968FADCE
:1044B0002A972C969FAD2C97892B2A968FAF2A97F7
:1044C0002B968FAD2B978FAB98A588A9980F98AF97
:1044D0002A968FAD2A9798AD890F88AF89A9898FC1
:1044E0009AA99A8F8BA98B8F9CA99C8F8DA98D8F50
:1044F0009EA99E8F8FA98F8F98AD98A3A984BA8407
:10450000CB84DC84ED84FE840F8518892A2D3B2D15
:104510004C2D5D2D6E2D7F2D802F912F0F2EFAE0CB
:10452000AF2EF02DBB24CC24DD24EE24FF2400E0AC
:1045300010E00E946907A22EB32EC42ED52EE62EBF
:10454000F72E082F192FA98ABA8ACB8ADC8AED8A1E
:10455000FE8A0F8B188F898D9989890F2D968FAFC1
:104560002D9781E065968FAF65972D969FAD2D971E
:10457000898D981718F065961FAE65979A8D8A8970
:10458000980F2E969FAF2E9791E066969FAF6697F5
:104590002E968FAD2E979A8D891718F066961FAEBE
:1045A000669765968FAD65972E969FAD2E97890F6E
:1045B00067968FAF679781E068968FAF6897679629
:1045C0009FAD67972E968FAD2E97981718F0689627
:1045D0001FAE689766969FAD669768968FAD689791
:1045E000982B66969FAF669767969FAD67972E96B6
:1045F0009FAF2E978B8D9B89890F2F968FAF2F970B
:1046000081E069968FAF69972F969FAD2F978B8D1D
:10461000981718F069961FAE699766969FAD6697D2
:104620002F968FAD2F97980F6A969FAF6A9791E05C
:104630006B969FAF6B976A968FAD6A972F969FADDB
:104640002F97891718F06B961FAE6B9769968FADF1
:1046500069976B969FAD6B97892B69968FAF69971A
:104660006A968FAD6A972F968FAF2F979C8D8C8906
:10467000980F60969FAF609791E06C969FAF6C9794
:1046800060968FAD60979C8D891718F06C961FAE61
:104690006C9769968FAD699760969FAD6097890F0B
:1046A0006D968FAF6D9781E06E968FAF6E976D961A
:1046B0009FAD6D9760968FAD6097981718F06E96C6
:1046C0001FAE6E976C969FAD6C976E968FAD6E9782
:1046D000982B6C969FAF6C976D969FAD6D9760967B
:1046E0009FAF60978D8D9D89890F61968FAF619780
:1046F00081E06F968FAF6F9761969FAD61978D8DBB
:10470000981718F06F961FAE6F976C969FAD6C97C9
:1047100061968FAD6197980FA0969FAFA09791E09B
:10472000A1969FAFA197A0968FADA09761969FADE0
:104730006197891718F0A1961FAEA1976F968FAD5C
:104740006F97A1969FADA197892B6F968FAF6F97AB
:10475000A0968FADA09761968FAF61979E8D8E8941
:10476000980F62969FAF629791E0A2969FAFA29733
:1047700062968FAD62979E8D891718F0A2961FAE34
:10478000A2976F968FAD6F9762969FAD6297890FD4
:10479000A3968FAFA39781E0A4968FAFA497A3961B
:1047A0009FADA39762968FAD6297981718F0A49665
:1047B0001FAEA497A2969FADA297A4968FADA49783
:1047C000982BA2969FAFA297A3969FADA3976296B0
:1047D0009FAF62978F8D9F89890F63968FAF639785
:1047E00081E0A5968FAFA59763969FAD63978F8D58
:1047F000981718F0A5961FAEA597A2969FADA29701
:1048000063968FAD6397980FA6969FAFA69791E09A
:10481000A7969FAFA797A6968FADA69763969FADD5
:104820006397891718F0A7961FAEA797A5968FAD27
:10483000A597A7969FADA797892BA5968FAFA5970C
:10484000A6968FADA69763968FAF639798A1888D34
:10485000980F64969FAF6497A5968FADA5976496C1
:104860009FAD6497890F64968FAF64972D968FAD37
:104870002D9789832E969FAD2E979A832F968FAD75
:104880002F978B8360969FAD60979C8361968FADC9
:1048900061978D8362969FAD62979E8363968FAD7D
:1048A00063978F8364969FAD64979887A984BA8431
:1048B000CB84DC84ED84FE840F8518892A2D3B2D62
:1048C0004C2D5D2D6E2D7F2D802F912F0F2EFAE018
:1048D000AF2EF02DBB24CC24DD24EE24FF2400E0F9
:1048E00010E00E94F400A22EB32EC42ED52EE62E88
:1048F000F72E082F192FA986BA86CB86DC86ED867F
:10490000FE860F87188B89859A85892B9B85892B35
:104910009C85892B9D85892B9E85892B9F85892B3D
:104920009889892B882309F090CC5EC0A980BA8031
:10493000CB80DC80ED80FE800F8118852A2D3B2DF9
:104940004C2D5D2D6E2D7F2D802F912F0F2EFAE097
:10495000AF2EF02DBB24CC24DD24EE24FF2400E078
:1049600010E00E946907A22EB32EC42ED52EE62E8B
:10497000F72E082F192F2A2D3B2D4C2D5D2D6E2D36
:104980007F2D802F912F822F805D0E94FC28A9808F
:10499000BA80CB80DC80ED80FE800F8118852A2DC7
:1049A0003B2D4C2D5D2D6E2D7F2D802F912F0F2EA9
:1049B000FAE0AF2EF02DBB24CC24DD24EE24FF241E
:1049C00000E010E00E94F400A22EB32EC42ED52EDB
:1049D000E62EF72E082F192FA982BA82CB82DC820D
:1049E000ED82FE820F8318878981813009F09ECF86
:1049F0008A81882309F09ACF8B81882309F096CF8A
:104A00008C81882309F092CF8D81882309F08ECF85
:104A10008E81882309F08ACF8F81882309F086CF81
:104A20008885882309F082CFCA59DF4F0FB6F894E2
:104A3000DEBF0FBECDBFCF91DF911F910F91FF90D1
:104A4000EF90DF90CF90BF90AF900895DF93CF931A
:104A5000CDB7DEB78CE10E945427CF91DF91089546
:104A6000DF93CF93CDB7DEB788E10E945427CF9173
:104A7000DF910895DF93CF9300D00F92CDB7DEB7CB
:104A80009B838A8319820EC08981282F30E08A8116
:104A90009B81FC01E20FF31F80810E94FC28898129
:104AA0008F5F89838981282F30E08A819B81FC0177
:104AB000E20FF31F8081882339F70F900F900F903A
:104AC000CF91DF910895DF93CF93CDB7DEB72797CE
:104AD0000FB6F894DEBF0FBECDBF8B837D836C8392
:104AE0004E832F831A828B81882F90E0880F991F25
:104AF000880F991F880F991F8A838A81805C0E9482
:104B0000542719820EC08981282F30E08C819D8125
:104B1000FC01E20FF31F80810E94FC2889818F5FD6
:104B200089838981883078F38E816F810E94A425E2
:104B30008B810E94FC2827960FB6F894DEBF0FBE2B
:104B4000CDBFCF91DF910895DF93CF9300D000D0F8
:104B5000CDB7DEB789836A838981282F30E03C8313
:104B60002B838B819C818130910531F02B813C819D
:104B70002230310531F009C08A8181580E945427C2
:104B800004C08A8181540E9454270F900F900F9087
:104B90000F90CF91DF910895DF93CF93CDB7DEB71C
:104BA000AA970FB6F894DEBF0FBECDBF80E061E0DC
:104BB0000E948B1C83E062E041E00E94001A83E0C7
:104BC00060E041E00E94001A83E061E041E00E9461
:104BD000001A80E090E0A8E4B2E48FA398A7A9A708
:104BE000BAA76FA178A589A59AA520E030E04AEF81
:104BF00054E40E94830FDC01CB018BA39CA3ADA3E3
:104C0000BEA36BA17CA18DA19EA120E030E040E875
:104C10005FE30E94891188232CF481E090E09AA33D
:104C200089A33FC06BA17CA18DA19EA120E03FEF95
:104C30004FE757E40E94291118164CF56FA178A58B
:104C400089A59AA520E030E040E251E40E94830F5C
:104C5000DC01CB01BC01CD010E94C800DC01CB010D
:104C60009AA389A30FC088EC90E098A38F8F8F8DB3
:104C700098A10197F1F798A38F8F89A19AA1019725
:104C80009AA389A389A19AA1009769F714C06BA17F
:104C90007CA18DA19EA10E94C800DC01CB019AA33A
:104CA00089A389A19AA19E8F8D8F8D8D9E8D01974D
:104CB000F1F79E8F8D8F88E30E94542780E090E06B
:104CC000A8E4B2E4898F9A8FAB8FBC8F698D7A8DFF
:104CD0008B8D9C8D20E030E04AEF54E40E94830FDE
:104CE000DC01CB018D8B9E8BAF8BB88F6D897E895C
:104CF0008F89988D20E030E040E85FE30E948911C1
:104D000088232CF481E090E09C8B8B8B3FC06D89D5
:104D10007E898F89988D20E03FEF4FE757E40E940E
:104D2000291118164CF5698D7A8D8B8D9C8D20E09C
:104D300030E040E251E40E94830FDC01CB01BC0172
:104D4000CD010E94C800DC01CB019C8B8B8B0FC076
:104D500088EC90E09A8B898B89899A890197F1F781
:104D60009A8B898B8B899C8901979C8B8B8B8B89E8
:104D70009C89009769F714C06D897E898F89988D09
:104D80000E94C800DC01CB019C8B8B8B8B899C899A
:104D9000988B8F878F8598890197F1F7988B8F87EC
:104DA0008CE00E94542781E00E94542780E090E02C
:104DB000A0E0B0E48B879C87AD87BE876B857C8540
:104DC0008D859E8520E030E04AEF54E40E94830FF9
:104DD000DC01CB018F839887A987BA876F8178859B
:104DE00089859A8520E030E040E85FE30E948911E0
:104DF00088232CF481E090E09E838D833FC06F81F7
:104E0000788589859A8520E03FEF4FE757E40E9437
:104E1000291118164CF56B857C858D859E8520E0C3
:104E200030E040E251E40E94830FDC01CB01BC0181
:104E3000CD010E94C800DC01CB019E838D830FC091
:104E400088EC90E09C838B838B819C810197F1F7A8
:104E50009C838B838D819E8101979E838D838D8121
:104E60009E81009769F714C06F81788589859A853E
:104E70000E94C800DC01CB019E838D838D819E81C1
:104E80009A83898389819A810197F1F79A8389832B
:104E900086E00E945427AA960FB6F894DEBF0FBE94
:104EA000CDBFCF91DF910895DF93CF93CDB7DEB71C
:104EB000E1970FB6F894DEBF0FBECDBF89AB83E09C
:104EC00060E040E00E94081B83E061E040E00E9457
:104ED000081B80E069A90E94101D83E062E041E0A8
:104EE0000E94081B80E090E0A0E8BFE38DA79EA78A
:104EF000AFA7B8AB6DA57EA58FA598A92BEA3AEA16
:104F00004AE250E40E94830FDC01CB0189A79AA7F3
:104F1000ABA7BCA769A57AA58BA59CA520E030E02E
:104F200040E85FE30E94891188231CF481E088A790
:104F300091C069A57AA58BA59CA520E030E04FE73C
:104F400053E40E94291118160CF07BC06DA57EA5B4
:104F50008FA598A920E030E04AE754E40E947D1034
:104F6000DC01CB018CA39DA3AEA3BFA36CA17DA14B
:104F70008EA19FA120E030E04AEF54E40E94830F0D
:104F8000DC01CB0188A399A3AAA3BBA368A179A143
:104F90008AA19BA120E030E040E85FE30E948911F4
:104FA00088232CF481E090E09F8F8E8F3FC068A112
:104FB00079A18AA19BA120E03FEF4FE757E40E942F
:104FC000291118164CF56CA17DA18EA19FA120E09E
:104FD00030E040E251E40E94830FDC01CB01BC01D0
:104FE000CD010E94C800DC01CB019F8F8E8F0FC0C6
:104FF00088EC90E09D8F8C8F8C8D9D8D0197F1F7C3
:105000009D8F8C8F8E8D9F8D01979F8F8E8F8E8D14
:105010009F8D009769F724C068A179A18AA19BA1FF
:105020000E94C800DC01CB019F8F8E8F8E8D9F8DDB
:105030009B8F8A8F8A8D9B8D0197F1F79B8F8A8F2B
:105040000FC069A57AA58BA59CA50E94C800DC01AC
:10505000CB0188A788A5898F898D8A95F1F7898FDB
:1050600083E062E040E00E94081B80E090E0A0E85E
:10507000BFE38D8B9E8BAF8BB88F6D897E898F89B7
:10508000988D2BEA3AEA4AE250E40E94830FDC0151
:10509000CB01898B9A8BAB8BBC8B69897A898B8985
:1050A0009C8920E030E040E85FE30E94891188237A
:1050B0001CF481E0888B91C069897A898B899C89ED
:1050C00020E030E04FE753E40E94291118160CF05D
:1050D0007BC06D897E898F89988D20E030E04AE71A
:1050E00054E40E947D10DC01CB018C879D87AE8744
:1050F000BF876C857D858E859F8520E030E04AEFF7
:1051000054E40E94830FDC01CB0188879987AA872A
:10511000BB87688579858A859B8520E030E040E8FB
:105120005FE30E94891188232CF481E090E09F8343
:105130008E833FC0688579858A859B8520E03FEF17
:105140004FE757E40E94291118164CF56C857D85B0
:105150008E859F8520E030E040E251E40E94830F7D
:10516000DC01CB01BC01CD010E94C800DC01CB01F8
:105170009F838E830FC088EC90E09D838C838C810D
:105180009D810197F1F79D838C838E819F8101978B
:105190009F838E838E819F81009769F724C06885E5
:1051A00079858A859B850E94C800DC01CB019F839D
:1051B0008E838E819F819B838A838A819B810197C5
:1051C000F1F79B838A830FC069897A898B899C89CF
:1051D0000E94C800DC01CB01888B88898983898182
:1051E0008A95F1F78983E1960FB6F894DEBF0FBE7A
:1051F000CDBFCF91DF910895DF93CF93CDB7DEB7C9
:10520000E1970FB6F894DEBF0FBECDBF89AB83E048
:1052100060E041E00E94081B83E061E040E00E9402
:10522000081B80E069A90E94101D83E062E041E054
:105230000E94081B80E090E0A0E8BFE38DA79EA736
:10524000AFA7B8AB6DA57EA58FA598A92BEA3AEAC2
:105250004AE250E40E94830FDC01CB0189A79AA7A0
:10526000ABA7BCA769A57AA58BA59CA520E030E0DB
:1052700040E85FE30E94891188231CF481E088A73D
:1052800091C069A57AA58BA59CA520E030E04FE7E9
:1052900053E40E94291118160CF07BC06DA57EA561
:1052A0008FA598A920E030E04AE754E40E947D10E1
:1052B000DC01CB018CA39DA3AEA3BFA36CA17DA1F8
:1052C0008EA19FA120E030E04AEF54E40E94830FBA
:1052D000DC01CB0188A399A3AAA3BBA368A179A1F0
:1052E0008AA19BA120E030E040E85FE30E948911A1
:1052F00088232CF481E090E09F8F8E8F3FC068A1BF
:1053000079A18AA19BA120E03FEF4FE757E40E94DB
:10531000291118164CF56CA17DA18EA19FA120E04A
:1053200030E040E251E40E94830FDC01CB01BC017C
:10533000CD010E94C800DC01CB019F8F8E8F0FC072
:1053400088EC90E09D8F8C8F8C8D9D8D0197F1F76F
:105350009D8F8C8F8E8D9F8D01979F8F8E8F8E8DC1
:105360009F8D009769F724C068A179A18AA19BA1AC
:105370000E94C800DC01CB019F8F8E8F8E8D9F8D88
:105380009B8F8A8F8A8D9B8D0197F1F79B8F8A8FD8
:105390000FC069A57AA58BA59CA50E94C800DC0159
:1053A000CB0188A788A5898F898D8A95F1F7898F88
:1053B00083E062E040E00E94081B80E090E0A0E80B
:1053C000BFE38D8B9E8BAF8BB88F6D897E898F8964
:1053D000988D2BEA3AEA4AE250E40E94830FDC01FE
:1053E000CB01898B9A8BAB8BBC8B69897A898B8932
:1053F0009C8920E030E040E85FE30E948911882327
:105400001CF481E0888B91C069897A898B899C8999
:1054100020E030E04FE753E40E94291118160CF009
:105420007BC06D897E898F89988D20E030E04AE7C6
:1054300054E40E947D10DC01CB018C879D87AE87F0
:10544000BF876C857D858E859F8520E030E04AEFA3
:1054500054E40E94830FDC01CB0188879987AA87D7
:10546000BB87688579858A859B8520E030E040E8A8
:105470005FE30E94891188232CF481E090E09F83F0
:105480008E833FC0688579858A859B8520E03FEFC4
:105490004FE757E40E94291118164CF56C857D855D
:1054A0008E859F8520E030E040E251E40E94830F2A
:1054B000DC01CB01BC01CD010E94C800DC01CB01A5
:1054C0009F838E830FC088EC90E09D838C838C81BA
:1054D0009D810197F1F79D838C838E819F81019738
:1054E0009F838E838E819F81009769F724C0688592
:1054F00079858A859B850E94C800DC01CB019F834A
:105500008E838E819F819B838A838A819B81019771
:10551000F1F79B838A830FC069897A898B899C897B
:105520000E94C800DC01CB01888B8889898389812E
:105530008A95F1F78983E1960FB6F894DEBF0FBE26
:10554000CDBFCF91DF910895DF93CF93CDB7DEB775
:1055500081E00E945427CF91DF910895DF93CF938C
:10556000CDB7DEB782E064E041E00E94001A82E03D
:1055700065E041E00E94001A82E066E041E00E949E
:10558000001A82E067E041E00E94001A82E060E0D9
:1055900040E00E94001A82E061E040E00E94001AB0
:1055A00082E062E040E00E94001A82E063E040E0B6
:1055B0000E94001A82E06FEF0E94101DCF91DF91D0
:1055C0000895DF93CF93CDB7DEB761970FB6F89408
:1055D000DEBF0FBECDBF8FEF898B188AC3C088890D
:1055E000882F90E0FC01E858FE4F908182E0692FFF
:1055F00040E00E94081B1F86A2C08F85882F90E084
:10560000FC01E458FE4F908182E0692F0E94101C3B
:10561000882309F091C08F85482F50E08889282F72
:1056200030E0CA01880F991F880F991F820F931FBE
:10563000FC01E859FE4F8081898B8F85882F90E08F
:10564000FC01E458FE4F908182E0692F0E94101CFB
:10565000882399F380E090E0A0EAB1E48B879C87EF
:10566000AD87BE876B857C858D859E8520E030E08B
:105670004AEF54E40E94830FDC01CB018F839887AB
:10568000A987BA876F81788589859A8520E030E07F
:1056900040E85FE30E94891188232CF481E090E0C8
:1056A0009E838D833FC06F81788589859A8520E0B0
:1056B0003FEF4FE757E40E94291118164CF56B8510
:1056C0007C858D859E8520E030E040E251E40E949B
:1056D000830FDC01CB01BC01CD010E94C800DC01BD
:1056E000CB019E838D830FC088EC90E09C838B83DD
:1056F0008B819C810197F1F79C838B838D819E81A7
:1057000001979E838D838D819E81009769F714C0D8
:105710006F81788589859A850E94C800DC01CB015C
:105720009E838D838D819E819A83898389819A81CD
:105730000197F1F79A8389838F858F5F8F878F8594
:10574000843008F45ACF8889882F90E0FC01E8580B
:10575000FE4F908182E0692F41E00E94081B8889FA
:105760008F5F888B8889843008F439CF8989619666
:105770000FB6F894DEBF0FBECDBFCF91DF91089575
:10578000DF93CF93CDB7DEB780E060E041E00E94C9
:10579000001A80E061E041E00E94001A80E062E0CF
:1057A00041E00E94001A23EF3BE280E068EE73E0E4
:1057B00040E050E00E94F21322E03CE281E068EB1E
:1057C0007BE040E050E00E94F21321E13CE282E005
:1057D00068E873E140E050E00E94F2130E947717FE
:1057E0000E94B313FFCFDF93CF93CDB7DEB7ABE308
:1057F000B0E0EBE3F0E0908181E089278C93CF91DA
:10580000DF910895DF93CF93CDB7DEB7ABE3B0E080
:10581000EBE3F0E0908182E089278C93CF91DF91D8
:105820000895DF93CF93CDB7DEB7ABE3B0E0EBE302
:10583000F0E0908184E089278C93CF91DF910895E7
:10584000991B79E004C0991F961708F0961B881FD2
:105850007A95C9F780950895AA1BBB1B51E107C033
:10586000AA1FBB1FA617B70710F0A61BB70B881FF0
:10587000991F5A95A9F780959095BC01CD0108957F
:10588000629FD001739FF001829FE00DF11D649F24
:10589000E00DF11D929FF00D839FF00D749FF00DB0
:1058A000659FF00D9927729FB00DE11DF91F639F51
:1058B000B00DE11DF91FBD01CF0111240895A1E232
:1058C0001A2EAA1BBB1BFD010DC0AA1FBB1FEE1F7A
:1058D000FF1FA217B307E407F50720F0A21BB30BC5
:1058E000E40BF50B661F771F881F991F1A9469F741
:1058F00060957095809590959B01AC01BD01CF019D
:1059000008952F923F924F925F926F927F928F9263
:105910009F92AF92BF92CF92DF92EF92FF920F933E
:105920001F93CF93DF93CDB7DEB7CA1BDB0B0FB648
:10593000F894DEBF0FBECDBF09942A883988488805
:105940005F846E847D848C849B84AA84B984C8849B
:10595000DF80EE80FD800C811B81AA81B981CE0F92
:10596000D11D0FB6F894DEBF0FBECDBFED01089577
:04597000F894FFCFD9
:105974000000000000000000000102020303030312
:1059840004040404040404040505050505050505CB
:1059940005050505050505050606060606060606AB
:1059A4000606060606060606060606060606060693
:1059B400060606060606060607070707070707077B
:1059C4000707070707070707070707070707070763
:1059D4000707070707070707070707070707070753
:1059E4000707070707070707070707070707070743
:1059F400070707070707070708080808080808082B
:105A04000808080808080808080808080808080812
:105A14000808080808080808080808080808080802
:105A240008080808080808080808080808080808F2
:105A340008080808080808080808080808080808E2
:105A440008080808080808080808080808080808D2
:105A540008080808080808080808080808080808C2
:105A640008080808080808080808080808080808B2
:105A740008080808080808080708092F0405062A62
:105A84000102032D63003D2B0405060700010203F8
:105A9400040002C0F9A4B0999282F880900E020228
:00000001FF
