:100000000C942A000C9434000C9434000C943400AA
:100010000C9434000C9434000C9434000C94340090
:100020000C9434000C9434000C9434000C94340080
:100030000C9434000C9434000C9434000C94340070
:100040000C9434000C9434000C9434000C94340060
:100050000C94340011241FBECFE5D8E0DEBFCDBF25
:100060000E94CA030C94EC030C940000DF93CF931E
:10007000CDB7DEB729970FB6F894DEBF0FBECDBF60
:1000800089836A834B838B81282F30E039872887C7
:1000900088859985009709F475C0288539852130B0
:1000A000310509F0E2C08981282F30E03F832E839B
:1000B0008E819F818130910549F12E813F812230CF
:1000C00031052CF48E819F81009761F0CEC02E8186
:1000D0003F812230310571F18E819F8183309105FE
:1000E000E9F1C3C0AAE3B0E0EAE3F0E08081482F81
:1000F0008A81282F30E081E090E0022E02C0880F34
:10010000991F0A94E2F7842B8C93AFC0A7E3B0E069
:10011000E7E3F0E08081482F8A81282F30E081E0FA
:1001200090E0022E02C0880F991F0A94E2F7842BF8
:100130008C939BC0A4E3B0E0E4E3F0E08081482F1F
:100140008A81282F30E081E090E0022E02C0880FE3
:10015000991F0A94E2F7842B8C9387C0A1E3B0E047
:10016000E1E3F0E08081482F8A81282F30E081E0B0
:1001700090E0022E02C0880F991F0A94E2F7842BA8
:100180008C9373C08981282F30E03D832C838C8130
:100190009D818130910559F12C813D8122303105BD
:1001A0002CF48C819D81009769F05FC02C813D818A
:1001B0002230310589F18C819D818330910509F4CC
:1001C00040C053C0AAE3B0E0EAE3F0E08081482FEA
:1001D0008A81282F30E081E090E0022E02C0880F53
:1001E000991F0A94E2F7809584238C933EC0A7E37D
:1001F000B0E0E7E3F0E08081482F8A81282F30E0EB
:1002000081E090E0022E02C0880F991F0A94E2F765
:10021000809584238C9329C0A4E3B0E0E4E3F0E06C
:100220008081482F8A81282F30E081E090E0022EE3
:1002300002C0880F991F0A94E2F7809584238C935B
:1002400014C0A1E3B0E0E1E3F0E08081482F8A81AF
:10025000282F30E081E090E0022E02C0880F991F25
:100260000A94E2F7809584238C9329960FB6F8942C
:10027000DEBF0FBECDBFCF91DF910895DF93CF9347
:10028000CDB7DEB729970FB6F894DEBF0FBECDBF4E
:1002900089836A834B838B81282F30E039872887B5
:1002A00088859985009709F475C02885398521309E
:1002B000310509F0E2C08981282F30E03F832E8389
:1002C0008E819F818130910549F12E813F812230BD
:1002D00031052CF48E819F81009761F0CEC02E8174
:1002E0003F812230310571F18E819F8183309105EC
:1002F000E9F1C3C0ABE3B0E0EBE3F0E08081482F6D
:100300008A81282F30E081E090E0022E02C0880F21
:10031000991F0A94E2F7842B8C93AFC0A8E3B0E056
:10032000E8E3F0E08081482F8A81282F30E081E0E7
:1003300090E0022E02C0880F991F0A94E2F7842BE6
:100340008C939BC0A5E3B0E0E5E3F0E08081482F0B
:100350008A81282F30E081E090E0022E02C0880FD1
:10036000991F0A94E2F7842B8C9387C0A2E3B0E034
:10037000E2E3F0E08081482F8A81282F30E081E09D
:1003800090E0022E02C0880F991F0A94E2F7842B96
:100390008C9373C08981282F30E03D832C838C811E
:1003A0009D818130910559F12C813D8122303105AB
:1003B0002CF48C819D81009769F05FC02C813D8178
:1003C0002230310589F18C819D818330910509F4BA
:1003D00040C053C0ABE3B0E0EBE3F0E08081482FD6
:1003E0008A81282F30E081E090E0022E02C0880F41
:1003F000991F0A94E2F7809584238C933EC0A8E36A
:10040000B0E0E8E3F0E08081482F8A81282F30E0D7
:1004100081E090E0022E02C0880F991F0A94E2F753
:10042000809584238C9329C0A5E3B0E0E5E3F0E058
:100430008081482F8A81282F30E081E090E0022ED1
:1004400002C0880F991F0A94E2F7809584238C9349
:1004500014C0A2E3B0E0E2E3F0E08081482F8A819B
:10046000282F30E081E090E0022E02C0880F991F13
:100470000A94E2F7809584238C9329960FB6F8941A
:10048000DEBF0FBECDBFCF91DF910895DF93CF9335
:1004900000D000D00F92CDB7DEB78A836B838FEF89
:1004A00089838A81282F30E03D832C834C815D81B4
:1004B0004130510541F18C819D818230910534F4A8
:1004C0002C813D812115310561F052C04C815D8147
:1004D0004230510551F18C819D8183309105B9F1F4
:1004E00047C0E9E3F0E08081282F30E08B81882F3E
:1004F00090E0A90102C0559547958A95E2F7CA0197
:100500008170898335C0E6E3F0E08081282F30E0F8
:100510008B81882F90E0A90102C0559547958A9557
:10052000E2F7CA018170898323C0E3E3F0E08081B0
:10053000282F30E08B81882F90E0A90102C05595CB
:1005400047958A95E2F7CA018170898311C0E0E37B
:10055000F0E08081282F30E08B81882F90E0A90186
:1005600002C0559547958A95E2F7CA018170898343
:1005700089810F900F900F900F900F90CF91DF9186
:100580000895DF93CF93CDB7DEB728970FB6F894D1
:10059000DEBF0FBECDBF89836A838A81282F30E0FA
:1005A00038872F838F8198850097C9F12F813885EF
:1005B0002130310509F061C08981282F30E03E8368
:1005C0002D838D819E8181309105D1F02D813E81D9
:1005D000223031052CF48D819E81009761F04DC051
:1005E0002D813E812230310581F08D819E818330C5
:1005F000910581F042C0EAE3F0E08FEF80833DC0D7
:10060000E7E3F0E08FEF808338C0E4E3F0E08FEFC2
:10061000808333C0E1E3F0E08FEF80832EC08981D7
:10062000282F30E03C832B838B819C818130910586
:10063000C9F02B813C81223031052CF48B819C81C7
:10064000009761F01AC02B813C812230310571F096
:100650008B819C818330910569F00FC0EAE3F0E063
:1006600010820BC0E7E3F0E0108207C0E4E3F0E0A3
:10067000108203C0E1E3F0E0108228960FB6F894F0
:10068000DEBF0FBECDBFCF91DF910895DF93CF9333
:1006900000D000D0CDB7DEB789836A838981282F47
:1006A00030E03C832B838B819C8181309105D1F09C
:1006B0002B813C81223031052CF48B819C81009769
:1006C00061F01EC02B813C812230310581F08B818D
:1006D0009C818330910581F013C0EBE3F0E08A81C7
:1006E00080830EC0E8E3F0E08A81808309C0E5E3FF
:1006F000F0E08A81808304C0E2E3F0E08A818083B5
:100700000F900F900F900F90CF91DF910895DF938E
:10071000CF9300D000D0CDB7DEB78A838FEF898327
:100720008A81282F30E03C832B838B819C81813010
:100730009105D1F02B813C81223031052CF48B8145
:100740009C81009761F01EC02B813C8122303105D5
:1007500081F08B819C818330910581F013C0E9E3A6
:10076000F0E0808189830EC0E6E3F0E08081898338
:1007700009C0E3E3F0E08081898304C0E0E3F0E0B6
:100780008081898389810F900F900F900F90CF9176
:10079000DF910895DF93CF930F92CDB7DEB780E05E
:1007A00061E00E94C10282E061E041E00E94360007
:1007B00080E062E30E94460380E00E948703898311
:1007C0008981882F90E082339105D1F782E061E042
:0C07D00041E00E943E01F4CFF894FFCFFE
:00000001FF
